:10000000E8C0000014C1000012C1000010C10000CF
:100010000EC100000CC100000AC1000008C10000B0
:1000200006C1000004C1000002C1000000C10000C0
:10003000FEC00000FCC00000FAC00000F8C00000D4
:10004000F6C00000F4C00000F2C00000F0C00000E4
:10005000EEC00000ECC00000EAC0000020C50000B7
:10006000E6C00000E6C40000BBC40000E0C0000021
:10007000DEC00000DCC00000DAC00000D8C0000014
:10008000D6C00000D4C00000D2C00000D0C0000024
:10009000CEC00000CCC00000CAC000004AC50000AD
:1000A000C6C00000C4C00000C2C00000C0C0000044
:1000B000BEC00000BCC00000BAC00000B8C0000054
:1000C000B6C00000B4C00000B2C00000B0C0000064
:1000D000AEC00000ACC00000AAC00000A8C0000074
:1000E000A6C0000000002200250028002B002E00E2
:1000F0003100340002010000050108010B01050573
:100100000505070508080808020202020A0A08088D
:1001100004040404010101010101010103030303BB
:1001200003030303040707070C0C0C0C0C0C0C0C4A
:100130000202020206060606060606060B0B0B0B5B
:100140000B0B0B0B01021020200808102040102080
:10015000408002010201080402010102040810208B
:100160004080804020100804020180040201804089
:1001700020100804020108040201010204081020F2
:100180004080010204081020408000000A0B020990
:100190000C0D0E0807030401000000000000000021
:1001A000000000000000000000000000000000004F
:1001B000000000000000121110000000000000000C
:1001C000000000000000000000000000000000002F
:1001D000BC0611241FBECFEFD1E2DEBFCDBF00E0D1
:1001E0000CBF12E0A0E0B2E0E0E1F1E100E00BBF03
:1001F00002C007900D92AE33B107D9F723E0AEE30A
:10020000B2E001C01D92A838B207E1F710E0C9EED4
:10021000D0E000E005C021970109802FFE016ED7D4
:10022000C83ED10780E00807B1F7DFD56FC7E8CE39
:10023000282F30E0F901E657FE4F9491F901EC5B6D
:10024000FE4F449122503F4FF9012491222309F49B
:1002500031C0992309F191509231F0F4E92FF0E087
:100260008827EB5CFE4F8F4F49C763016701470149
:100270005B015F014C016A01700174017A017E012A
:10028000820188018C014C01900196019A018091B4
:1002900080008F7780938000E22FF0E0EE0FFF1F49
:1002A000EC51FF4FA591B4918FB7F894EC914E2B80
:1002B0004C938FBF0895809180008F7DEBCF80910C
:1002C0008000877FE7CF84B58F7784BDE5CF84B585
:1002D0008F7DFBCF8091B0008F778093B000DCCF13
:1002E0008091B0008F7DF9CF809190008F778093BF
:1002F0009000D2CF809190008F7DF9CF80919000B7
:10030000877FF5CF8091A0008F778093A000C4CF26
:100310008091A0008F7DF9CF8091A000877FF5CFDD
:10032000809120018F7780932001B6CF80912001AA
:100330008F7DF9CF80912001877FF5CF0895CF93EE
:10034000DF93AC01E091DD02F091DE023097F1F035
:100350009091DC028091DB029817C0F090E0292F89
:1003600030E02617370754F4D901AE5BBD4F240F98
:10037000351FE90128812C939F5FF1CF1092DC0299
:100380006093DB02CB01DF91CF911994DF91CF9184
:100390000895AF92BF92CF92DF92EF92FF920F93A8
:1003A0001F93CF93DF936C017B018B01040F151F0B
:1003B000EB015E01AE18BF08C017D10759F0699173
:1003C000D601ED91FC910190F081E02DC6011995C7
:1003D000892B79F7C501DF91CF911F910F91FF9084
:1003E000EF90DF90CF90BF90AF900895FC01538DB8
:1003F000448D252F30E0842F90E0821B930B5417FF
:1004000010F0CF96089501970895FC01918D828D8B
:10041000981761F0A28DAE0FBF2FB11D5D968C9124
:10042000928D9F5F9F73928F90E008958FEF9FEF63
:100430000895FC01918D828D981731F0828DE80F1F
:10044000F11D858D90E008958FEF9FEF0895FC01D9
:10045000918D228D892F90E0805C9F4F821B9109A6
:100460008F73992708958FED92E0F1DF21E0892BBA
:1004700009F420E0822F0895FC01A48DA80FB92F64
:10048000B11DA35ABF4F2C91848D90E001968F73BC
:100490009927848FA689B7892C93A089B1898C91DB
:1004A000837080648C93938D848D981306C002882A
:1004B000F389E02D80818F7D80830895EF92FF92F4
:1004C0000F931F93CF93DF93EC0181E0888F9B8D77
:1004D0008C8D98131AC0E889F989808185FF15C031
:1004E0009FB7F894EE89FF896083E889F989808154
:1004F0008370806480839FBF81E090E0DF91CF9123
:100500001F910F91FF90EF900895F62E0B8D10E044
:100510000F5F1F4F0F731127E02E8C8D8E110BC0B4
:100520000FB607FCFACFE889F989808185FFF5CFFE
:10053000CE01A2DFF2CFEB8DEC0FFD2FF11DE35AC0
:10054000FF4FF0829FB7F8940B8FEA89FB89808177
:100550008062D0CFCF93DF93EC01888D8823B1F0F8
:10056000AA89BB89E889F9898C9185FD03C08081BE
:1005700086FD0CC00FB607FCF7CF8C9185FFF2CF3C
:10058000808185FFEDCFCE0177DFEACFDF91CF917C
:10059000089580E090E0892B21F065DF81110E94B1
:1005A000000080E090E0892B49F080E090E0892B0A
:1005B00029F00E94000081110E94000080E090E07C
:1005C000892B49F080E090E0892B29F00E940000FF
:1005D00081110E94000080E090E0892B49F080E0CA
:1005E00090E0892B29F00E94000081110C940000FA
:1005F00008953FB7F8948091CE029091CF02A091D8
:10060000D002B091D10226B5A89B05C02F3F19F0AA
:100610000196A11DB11D3FBFBA2FA92F982F882782
:10062000BC01CD01620F711D811D911D42E0660F5D
:10063000771F881F991F4A95D1F7089585ED8093FC
:10064000BC008091BC0084FDFCCF1092D8020895BC
:1006500020918202260F3327331F21323105ECF41B
:100660002091D802FC0190E080E0243069F082E023
:100670000895A09182022191AC014E595D4FA40FC3
:10068000B52FB11D2C930196861798F380918202A5
:10069000680F6093820280E0089581E008950895D4
:1006A000E091DC028091DB02E81730F4F0E0EE5BD1
:1006B000FD4F808190E008958FEF9FEF0895909116
:1006C000DC028091DB022FEF3FEF981748F4E92F0F
:1006D000F0E0EE5BFD4F208130E09F5F9093DC0205
:1006E000C90108958091DB029091DC02891B990B6E
:1006F0000895CF93DF93CB01EA01642FA9DFCE01E8
:10070000DF91CF910895CF93DF931F92CDB7DEB7DE
:10071000698361E0CE0101969BDF81E090E00F905C
:10072000DF91CF91089590E080E0089591B3907E9D
:100730008F71892B81BB089521B32F7190E0AC019B
:1007400035E0440F551F3A95E1F7242B21BBE8E033
:10075000F1E020812C7F43E0959587954A95E1F75C
:100760008370822B80830895E8E0F1E02081237874
:1007700034E0839FC00111248C77822B80830895FD
:10078000EBE0F1E09081977048E0849F90011124A4
:10079000922B9083089525B12F7190E0AC0135E044
:1007A000440F551F3A95E1F7242B25B9E2E0F1E01B
:1007B00020812F79880F991F880F991F8076822BAF
:1007C00080830895EBE0F1E02081287F982F9770D7
:1007D000922B9083E5E0F1E020812C7F90E033E0E4
:1007E000959587953A95E1F78370822B80830895DC
:1007F000FC0101900020E9F73197AF01481B590B2C
:10080000BC018FED92E0C5CD8F929F92AF92BF92C7
:100810000F931F93CF93DF93CDB7DEB7A1970FB69A
:10082000F894DEBF0FBECDBF19A2423008F44AE0F3
:100830008E010F5D1F4F842E912CB12CA12CA50190
:1008400094013AD4E62FB901CA01EA30ECF4E05D34
:10085000D801EE938D01232B242B252B81F790E0DB
:1008600080E0109711F0CD01C3DFA1960FB6F89488
:10087000DEBF0FBECDBFDF91CF911F910F91BF9013
:10088000AF909F908F900895E95CE2CF0F931F93F4
:10089000CF938C0194E0892F861B8770941BC92FFE
:1008A000C7708860F8011995FFEF24E38CE0F150E0
:1008B00020408040E1F700C000008C2F8061F801EB
:1008C000CF911F910F911994CF92DF92EF92FF92E7
:1008D0008CE793E0F4DE809300028CE793E0EFDE98
:1008E000809301028CE793E0EADEF82E80934102C8
:1008F0008CE793E0E4DEE82E8093400280E092E013
:10090000B6D390933F0280933E028D30910509F457
:1009100058C00CF03FC08B30910509F447C00C97CC
:1009200009F44AC087E292E063DFC0903E02D090B3
:100930003F020D2C000CEE08FF084AE0C701B6018B
:10094000F7FE0CC06DE28FED92E0B8DD66277727E9
:10095000CB016C197D098E099F094AE055DF8BE2B6
:1009600092E046DF6091410270E090E080E04AE072
:100970004BDF83E392E03CDF6091400270E090E067
:1009800080E04AE041DF8BE392E0FF90EF90DF9060
:10099000CF902ECF8F309105F1F0C4F0409709F041
:1009A000C1CF4E2D6F2D82EE93E004C04E2D6F2DE2
:1009B00086E993E06BDFB6CF4E2D6F2D8CE993E087
:1009C000F9CF4E2D6F2D84EB93E0F4CF4E2D6F2D8C
:1009D00080EC93E0EFCF4E2D6F2D8BEC93E0EACFC0
:1009E0001F920F920FB60F9211240BB60F922F93F6
:1009F0003F934F935F936F937F938F939F93AF93A7
:100A0000BF93EF93FF938FED92E036DDFF91EF916F
:100A1000BF91AF919F918F917F916F915F914F9116
:100A20003F912F910F900BBE0F900FBE0F901F9014
:100A300018951F920F920FB60F9211240BB60F92BA
:100A40002F938F939F93EF93FF93E091EF02F09199
:100A5000F0028081E091F502F091F60282FD1DC066
:100A600090818091F8028F5F8F732091F902821735
:100A700041F0E091F802F0E0E152FD4F958F809354
:100A8000F802FF91EF919F918F912F910F900BBEE4
:100A90000F900FBE0F901F9018958081F2CF1F927C
:100AA0000F920FB60F9211242F933F938F939F9322
:100AB000AF93BF938091CA029091CB02A091CC02D8
:100AC000B091CD023091C90223E0230F2D3758F5A4
:100AD0000196A11DB11D2093C9028093CA02909373
:100AE000CB02A093CC02B093CD028091CE02909124
:100AF000CF02A091D002B091D1020196A11DB11DEB
:100B00008093CE029093CF02A093D002B093D102F3
:100B1000BF91AF919F918F913F912F910F900FBEF9
:100B20000F901F90189526E8230F0296A11DB11D66
:100B3000D2CF1F920F920FB60F9211240BB60F92C5
:100B40002F933F934F935F936F937F938F939F93D5
:100B5000AF93BF93EF93FF938091B900887F803666
:100B600009F44CC008F03FC0883209F4A8C028F549
:100B7000803109F49CC0C8F4882309F4FAC0883095
:100B800009F495C0FF91EF91BF91AF919F918F9123
:100B90007F916F915F914F913F912F910F900BBE7D
:100BA0000F900FBE0F901F901895883109F487C0E1
:100BB000803241F78093A50214C0803409F49CC0B0
:100BC00040F48033B9F38833E9F68093A50285ECCD
:100BD000AFC0803509F484C0883509F495C08834E5
:100BE00089F62CDDCFCF883909F48CC038F58837E9
:100BF00029F050F4883611F0803721F683E0809395
:100C0000D8021092A40257C0883809F47BC08039FA
:100C100019F0803809F0B6CF8091A402803208F034
:100C200071C0E091A40281E08E0F8093A4028091B4
:100C3000BB00F0E0EC57FD4F80833DC0803B39F0B6
:100C4000E0F4803A09F479C0883A09F09BCF84E057
:100C50008093D8021092830210928202E091D40213
:100C6000F091D50219958091820281110FC081E027
:100C7000809382021092620209C0803C09F4A7CFDF
:100C8000883C09F4A4CF883B09F07CCFE091830233
:100C900081E08E0F80938302F0E0EE59FD4F80815A
:100CA0008093BB00909183028091820229C0809141
:100CB000C8028093BB0085EC8093BC0063CF909109
:100CC000C7028091C602981758F5E091C70281E0EB
:100CD0008E0F8093C702F0E0EA55FD4F8081E9CF87
:100CE000E091C70281E08E0F8093C7028091BB0024
:100CF000F0E0EA55FD4F80839091C7028091C602D3
:100D00009817C8F285E8D8CFE091C70281E08E0F2E
:100D10008093C7028091BB00F0E0EA55FD4F8083CD
:100D20008091D70281115DCF81E08093D60284EA61
:100D30008093BC001092D80225CF85EC8093BC0034
:100D40001092D8028091A402803230F4E091A40283
:100D5000F0E0EC57FD4F10826091A40270E0E0914A
:100D6000D202F091D30284E892E019951092A40285
:100D700009CF1092A50235CFEFEDF2E01382128277
:100D800088EE93E0A0E0B0E084839583A683B783E8
:100D900027E032E03183208325EC30E0358724875B
:100DA00024EC30E03787268720EC30E0318B208B35
:100DB00021EC30E0338B228B22EC30E0358B248B1E
:100DC00026EC30E0378B268B118E128E138E148E0C
:100DD000ECE7F3E01382128284839583A683B783C2
:100DE00089E192E0918380830895789484B582604C
:100DF00084BD84B5816084BD85B5826085BD85B5BF
:100E0000816085BD80916E00816080936E0010923C
:100E100081008091810082608093810080918100B7
:100E20008160809381008091800081608093800048
:100E30008091B10084608093B1008091B0008160A6
:100E40008093B000809191008260809391008091A6
:100E500091008160809391008091900081608093E7
:100E600090008091A10082608093A1008091A100F8
:100E700081608093A1008091A00081608093A00098
:100E80008091210182608093210180912101816004
:100E900080932101809120018160809320018091C5
:100EA0007A00846080937A0080917A0082608093D7
:100EB0007A0080917A00816080937A0080917A0034
:100EC000806880937A001092C100E091EF02F09167
:100ED000F00282E08083E091EB02F091EC0210825C
:100EE000E091ED02F091EE028FEC80831092F70218
:100EF000E091F302F091F40286E08083E091F10248
:100F0000F091F202808180618083E091F102F091A2
:100F1000F202808188608083E091F102F091F20218
:100F2000808180688083E091F102F091F2028081FB
:100F30008F7D80831092DC021092DB021092DA0225
:100F40001092D9021092D80281E08093D7021092B9
:100F5000D60284E16DD985E16BD98091B9008E7F8D
:100F60008093B9008091B9008D7F8093B90088E4A7
:100F70008093B80085E48093BC008EE991E0909363
:100F8000D5028093D4028FE991E09093D3028093AD
:100F9000D20280E18093BA0084E694E09093DE026E
:100FA0008093DD0280B38FEF80BB909107019F6734
:100FB0009093070194B1906E94B99091010193665A
:100FC00090930101579A91B181B997B187B993B3C1
:100FD000976093BB90910A0180930A01809104016C
:100FE00083608093040181B311BA809108018078F5
:100FF0008093080185B18F7185B9809102018C7948
:10100000809302015F9882B112B888B118B884B396
:10101000887F84BB80910B0110920B0180910501A8
:101020008C7F80930501E5DA4B015C0188ECC82ECA
:10103000D12CE12CF12CDDDA681979098A099B0998
:10104000683E734081059105B0F321E0C21AD108D2
:10105000E108F10888EE880E83E0981EA11CB11CFF
:10106000C114D104E104F10431F793DAFECFFC019D
:1010700088279927E89421912032E9F3293010F04C
:101080002E30C8F32B3239F02D3231F4689403C07E
:101090000BD0820F911D219120532A30C8F31EF4EA
:1010A000909581959F4F08957AE0979F902D879F07
:1010B000802D910D11240895A1E21A2EAA1BBB1BAD
:1010C000FD010DC0AA1FBB1FEE1FFF1FA217B30714
:1010D000E407F50720F0A21BB30BE40BF50B661F2A
:1010E000771F881F991F1A9469F7609570958095EE
:1010F00090959B01AC01BD01CF010895EE0FFF1F3C
:10110000881F8BBF0790F691E02D1994F894FFCFBC
:10111000303000000000005E02C901F601AA02277B
:101120000205021902000000008303790393034FB4
:101130000372035F03500343435500206D6963311D
:0E1140003A2000206D6963323A20000D0A004B
:00000001FF
